:020000020000FC
:0200000019C025
:02001C0072C1AF
:02002A00B1C063
:10003400E0E0F1E000E0AFEFB2E00193EA17FB1774
:10004400E0F30CE907BD02E004BD03E005BD02E0F6
:1000540000936E000AE01FEFE0E0F1E011930A95CF
:10006400E9F7EAE0F1E000E0002E05E011930192E7
:1000740001920A95D9F700E000937B0000EE00930B
:100084007C000EE600937A0003EF04B900E305B99F
:100094000CEF0AB900E00BB907B903E000937E0046
:1000A400789402E0A0E0B0E00AD104E0F3D005E0E7
:1000B400F1D000C0009100010F3FA9F029E0E0E079
:1000C400F1E0118111932A95E1F71FEF108310E0FD
:1000D400E6E7F0E0E00FF11FEE0FFF1F059114912A
:1000E400E02FF12F0995E6CF7C008A017D00E40022
:1000F400F7000401089525B100E305B900E00BB948
:1001040024FD18C000911B01302F0B3008F00A5059
:10011400E1EBF0E0E00FF01DEE0FFF1F05911491ED
:100124003B3020F033EC13273CEF0327106115B963
:100134000BB910C000911C010B3008F00AE0ECEB85
:10014400F0E0E00FF01DEE0FFF1F05911491106217
:1001540015B90BB902E0A0E0B0E0B1D008950000F9
:10016400000200038003C003E003E083E0C3F0C3A4
:10017400F8C3FCC30000000200018000400020001E
:10018400008000401000080004000F930FB70F9385
:100194001F931091790000917C000F70013031F0B1
:1001A40001EE00937C001093190105C000EE00934A
:1001B4007C0010931A0103E06DD01F910F910FBFC3
:1001C4000F9118950091190110E0095110F0139541
:1001D400FCCF10931B0100911A0110E0095110F09B
:1001E4001395FCCF10931B01089500911C010395F6
:1001F4000B3008F001E000931C0104E0A8E1B0E03A
:100204005ED0089500911B010395053108F000E0CC
:1002140000931B0105E0A9E0B0E051D008952F93AD
:100224003F934F9320E030E048E0000F221F211756
:1002340010F4330F03C00894331F211B4A95A9F708
:10024400032F122F4F913F912F9108950F932F93C6
:100254003F934F935F9320E000E030E050E040E1B3
:10026400AA0FBB1F221F001F2117000518F4330F0C
:10027400551F05C00894331F551F211B00094A95BB
:1002840079F7A32FB52F122F5F914F913F912F91A3
:100294000F910895EF93FF931F932F93E0E0F1E004
:1002A4001AE021912F3F21F01A95D9F70FEF02C0E0
:1002B400029300E02F911F91FF91EF910895EF9326
:1002C400FF931F932F9315E0EAE0F1E020812017BC
:1002D40071F01A95D9F715E0EAE0F1E020812F3F9B
:1002E40029F033961A95D1F70FEF04C00083A18348
:1002F400B28300E02F911F91FF91EF9108950F9326
:100304000FB70F9301E0C6DF0F910FBF0F91189540
:10031400EAE0F1E015E02081A181B2812F3F59F09C
:10032400A030B00521F01197A183B28304C0022F3D
:0E033400B1DF2FEF208333961A9569F70895F5
:00000001FF
